{
  "contractName": "NFTCollection",
  "abi": [
    {
      "inputs": [
        {
          "internalType": "address",
          "name": "initialOwner",
          "type": "address"
        },
        {
          "internalType": "string",
          "name": "_contractMetadata_",
          "type": "string"
        },
        {
          "internalType": "string",
          "name": "name_",
          "type": "string"
        },
        {
          "internalType": "string",
          "name": "symbol_",
          "type": "string"
        },
        {
          "internalType": "uint256",
          "name": "_mintFee",
          "type": "uint256"
        }
      ],
      "stateMutability": "nonpayable",
      "type": "constructor"
    },
    {
      "anonymous": false,
      "inputs": [
        {
          "indexed": true,
          "internalType": "address",
          "name": "owner",
          "type": "address"
        },
        {
          "indexed": true,
          "internalType": "address",
          "name": "approved",
          "type": "address"
        },
        {
          "indexed": true,
          "internalType": "uint256",
          "name": "tokenId",
          "type": "uint256"
        }
      ],
      "name": "Approval",
      "type": "event"
    },
    {
      "anonymous": false,
      "inputs": [
        {
          "indexed": true,
          "internalType": "address",
          "name": "owner",
          "type": "address"
        },
        {
          "indexed": true,
          "internalType": "address",
          "name": "operator",
          "type": "address"
        },
        {
          "indexed": false,
          "internalType": "bool",
          "name": "approved",
          "type": "bool"
        }
      ],
      "name": "ApprovalForAll",
      "type": "event"
    },
    {
      "anonymous": false,
      "inputs": [
        {
          "indexed": true,
          "internalType": "address",
          "name": "recipient",
          "type": "address"
        },
        {
          "indexed": false,
          "internalType": "uint256",
          "name": "tokenId",
          "type": "uint256"
        },
        {
          "indexed": false,
          "internalType": "string",
          "name": "tokenURI",
          "type": "string"
        }
      ],
      "name": "NFTMinted",
      "type": "event"
    },
    {
      "anonymous": false,
      "inputs": [
        {
          "indexed": true,
          "internalType": "address",
          "name": "previousOwner",
          "type": "address"
        },
        {
          "indexed": true,
          "internalType": "address",
          "name": "newOwner",
          "type": "address"
        }
      ],
      "name": "OwnershipTransferred",
      "type": "event"
    },
    {
      "anonymous": false,
      "inputs": [
        {
          "indexed": true,
          "internalType": "address",
          "name": "from",
          "type": "address"
        },
        {
          "indexed": true,
          "internalType": "address",
          "name": "to",
          "type": "address"
        },
        {
          "indexed": true,
          "internalType": "uint256",
          "name": "tokenId",
          "type": "uint256"
        }
      ],
      "name": "Transfer",
      "type": "event"
    },
    {
      "inputs": [
        {
          "internalType": "address",
          "name": "to",
          "type": "address"
        },
        {
          "internalType": "uint256",
          "name": "tokenId",
          "type": "uint256"
        }
      ],
      "name": "approve",
      "outputs": [],
      "stateMutability": "nonpayable",
      "type": "function"
    },
    {
      "inputs": [
        {
          "internalType": "address",
          "name": "owner",
          "type": "address"
        }
      ],
      "name": "balanceOf",
      "outputs": [
        {
          "internalType": "uint256",
          "name": "",
          "type": "uint256"
        }
      ],
      "stateMutability": "view",
      "type": "function",
      "constant": true
    },
    {
      "inputs": [],
      "name": "contractMetadata",
      "outputs": [
        {
          "internalType": "string",
          "name": "",
          "type": "string"
        }
      ],
      "stateMutability": "view",
      "type": "function",
      "constant": true
    },
    {
      "inputs": [
        {
          "internalType": "uint256",
          "name": "tokenId",
          "type": "uint256"
        }
      ],
      "name": "getApproved",
      "outputs": [
        {
          "internalType": "address",
          "name": "",
          "type": "address"
        }
      ],
      "stateMutability": "view",
      "type": "function",
      "constant": true
    },
    {
      "inputs": [
        {
          "internalType": "address",
          "name": "owner",
          "type": "address"
        },
        {
          "internalType": "address",
          "name": "operator",
          "type": "address"
        }
      ],
      "name": "isApprovedForAll",
      "outputs": [
        {
          "internalType": "bool",
          "name": "",
          "type": "bool"
        }
      ],
      "stateMutability": "view",
      "type": "function",
      "constant": true
    },
    {
      "inputs": [],
      "name": "mintFee",
      "outputs": [
        {
          "internalType": "uint256",
          "name": "",
          "type": "uint256"
        }
      ],
      "stateMutability": "view",
      "type": "function",
      "constant": true
    },
    {
      "inputs": [],
      "name": "name",
      "outputs": [
        {
          "internalType": "string",
          "name": "",
          "type": "string"
        }
      ],
      "stateMutability": "view",
      "type": "function",
      "constant": true
    },
    {
      "inputs": [],
      "name": "owner",
      "outputs": [
        {
          "internalType": "address",
          "name": "",
          "type": "address"
        }
      ],
      "stateMutability": "view",
      "type": "function",
      "constant": true
    },
    {
      "inputs": [
        {
          "internalType": "uint256",
          "name": "tokenId",
          "type": "uint256"
        }
      ],
      "name": "ownerOf",
      "outputs": [
        {
          "internalType": "address",
          "name": "",
          "type": "address"
        }
      ],
      "stateMutability": "view",
      "type": "function",
      "constant": true
    },
    {
      "inputs": [],
      "name": "renounceOwnership",
      "outputs": [],
      "stateMutability": "nonpayable",
      "type": "function"
    },
    {
      "inputs": [
        {
          "internalType": "address",
          "name": "from",
          "type": "address"
        },
        {
          "internalType": "address",
          "name": "to",
          "type": "address"
        },
        {
          "internalType": "uint256",
          "name": "tokenId",
          "type": "uint256"
        }
      ],
      "name": "safeTransferFrom",
      "outputs": [],
      "stateMutability": "nonpayable",
      "type": "function"
    },
    {
      "inputs": [
        {
          "internalType": "address",
          "name": "from",
          "type": "address"
        },
        {
          "internalType": "address",
          "name": "to",
          "type": "address"
        },
        {
          "internalType": "uint256",
          "name": "tokenId",
          "type": "uint256"
        },
        {
          "internalType": "bytes",
          "name": "data",
          "type": "bytes"
        }
      ],
      "name": "safeTransferFrom",
      "outputs": [],
      "stateMutability": "nonpayable",
      "type": "function"
    },
    {
      "inputs": [
        {
          "internalType": "address",
          "name": "operator",
          "type": "address"
        },
        {
          "internalType": "bool",
          "name": "approved",
          "type": "bool"
        }
      ],
      "name": "setApprovalForAll",
      "outputs": [],
      "stateMutability": "nonpayable",
      "type": "function"
    },
    {
      "inputs": [],
      "name": "symbol",
      "outputs": [
        {
          "internalType": "string",
          "name": "",
          "type": "string"
        }
      ],
      "stateMutability": "view",
      "type": "function",
      "constant": true
    },
    {
      "inputs": [
        {
          "internalType": "address",
          "name": "from",
          "type": "address"
        },
        {
          "internalType": "address",
          "name": "to",
          "type": "address"
        },
        {
          "internalType": "uint256",
          "name": "tokenId",
          "type": "uint256"
        }
      ],
      "name": "transferFrom",
      "outputs": [],
      "stateMutability": "nonpayable",
      "type": "function"
    },
    {
      "inputs": [
        {
          "internalType": "address",
          "name": "newOwner",
          "type": "address"
        }
      ],
      "name": "transferOwnership",
      "outputs": [],
      "stateMutability": "nonpayable",
      "type": "function"
    },
    {
      "inputs": [
        {
          "internalType": "string",
          "name": "uri",
          "type": "string"
        }
      ],
      "name": "mintNFT",
      "outputs": [
        {
          "internalType": "uint256",
          "name": "",
          "type": "uint256"
        }
      ],
      "stateMutability": "payable",
      "type": "function",
      "payable": true
    },
    {
      "inputs": [],
      "name": "getAllNFTs",
      "outputs": [
        {
          "components": [
            {
              "internalType": "uint256",
              "name": "id",
              "type": "uint256"
            },
            {
              "internalType": "string",
              "name": "uri",
              "type": "string"
            }
          ],
          "internalType": "struct NFTCollection.ArtRender[]",
          "name": "",
          "type": "tuple[]"
        }
      ],
      "stateMutability": "view",
      "type": "function",
      "constant": true
    },
    {
      "inputs": [
        {
          "internalType": "address",
          "name": "account",
          "type": "address"
        }
      ],
      "name": "getUserNFTs",
      "outputs": [
        {
          "components": [
            {
              "internalType": "uint256",
              "name": "id",
              "type": "uint256"
            },
            {
              "internalType": "string",
              "name": "uri",
              "type": "string"
            }
          ],
          "internalType": "struct NFTCollection.ArtRender[]",
          "name": "",
          "type": "tuple[]"
        }
      ],
      "stateMutability": "view",
      "type": "function",
      "constant": true
    },
    {
      "inputs": [
        {
          "internalType": "uint256",
          "name": "tokenId",
          "type": "uint256"
        }
      ],
      "name": "tokenURI",
      "outputs": [
        {
          "internalType": "string",
          "name": "",
          "type": "string"
        }
      ],
      "stateMutability": "view",
      "type": "function",
      "constant": true
    },
    {
      "inputs": [
        {
          "internalType": "bytes4",
          "name": "interfaceId",
          "type": "bytes4"
        }
      ],
      "name": "supportsInterface",
      "outputs": [
        {
          "internalType": "bool",
          "name": "",
          "type": "bool"
        }
      ],
      "stateMutability": "view",
      "type": "function",
      "constant": true
    }
  ],
  "bytecode": "0x60806040523480156200001157600080fd5b50604051620041e8380380620041e8833981810160405281019062000037919062000506565b828281600090816200004a91906200082c565b5080600190816200005c91906200082c565b5050506200007f62000073620000b460201b60201c565b620000bc60201b60201c565b83600990816200009091906200082c565b5080600a81905550620000a9856200018260201b60201c565b505050505062000a2e565b600033905090565b6000600760009054906101000a900473ffffffffffffffffffffffffffffffffffffffff16905081600760006101000a81548173ffffffffffffffffffffffffffffffffffffffff021916908373ffffffffffffffffffffffffffffffffffffffff1602179055508173ffffffffffffffffffffffffffffffffffffffff168173ffffffffffffffffffffffffffffffffffffffff167f8be0079c531659141344cd1fd0a4f28419497f9722a3daafe3b4186f6b6457e060405160405180910390a35050565b620001926200021860201b60201c565b600073ffffffffffffffffffffffffffffffffffffffff168173ffffffffffffffffffffffffffffffffffffffff160362000204576040517f08c379a0000000000000000000000000000000000000000000000000000000008152600401620001fb906200099a565b60405180910390fd5b6200021581620000bc60201b60201c565b50565b62000228620000b460201b60201c565b73ffffffffffffffffffffffffffffffffffffffff166200024e620002a960201b60201c565b73ffffffffffffffffffffffffffffffffffffffff1614620002a7576040517f08c379a00000000000000000000000000000000000000000000000000000000081526004016200029e9062000a0c565b60405180910390fd5b565b6000600760009054906101000a900473ffffffffffffffffffffffffffffffffffffffff16905090565b6000604051905090565b600080fd5b600080fd5b600073ffffffffffffffffffffffffffffffffffffffff82169050919050565b60006200031482620002e7565b9050919050565b620003268162000307565b81146200033257600080fd5b50565b60008151905062000346816200031b565b92915050565b600080fd5b600080fd5b6000601f19601f8301169050919050565b7f4e487b7100000000000000000000000000000000000000000000000000000000600052604160045260246000fd5b620003a18262000356565b810181811067ffffffffffffffff82111715620003c357620003c262000367565b5b80604052505050565b6000620003d8620002d3565b9050620003e6828262000396565b919050565b600067ffffffffffffffff82111562000409576200040862000367565b5b620004148262000356565b9050602081019050919050565b60005b838110156200044157808201518184015260208101905062000424565b60008484015250505050565b6000620004646200045e84620003eb565b620003cc565b90508281526020810184848401111562000483576200048262000351565b5b6200049084828562000421565b509392505050565b600082601f830112620004b057620004af6200034c565b5b8151620004c28482602086016200044d565b91505092915050565b6000819050919050565b620004e081620004cb565b8114620004ec57600080fd5b50565b6000815190506200050081620004d5565b92915050565b600080600080600060a08688031215620005255762000524620002dd565b5b6000620005358882890162000335565b955050602086015167ffffffffffffffff811115620005595762000558620002e2565b5b620005678882890162000498565b945050604086015167ffffffffffffffff8111156200058b576200058a620002e2565b5b620005998882890162000498565b935050606086015167ffffffffffffffff811115620005bd57620005bc620002e2565b5b620005cb8882890162000498565b9250506080620005de88828901620004ef565b9150509295509295909350565b600081519050919050565b7f4e487b7100000000000000000000000000000000000000000000000000000000600052602260045260246000fd5b600060028204905060018216806200063e57607f821691505b602082108103620006545762000653620005f6565b5b50919050565b60008190508160005260206000209050919050565b60006020601f8301049050919050565b600082821b905092915050565b600060088302620006be7fffffffffffffffffffffffffffffffffffffffffffffffffffffffffffffffff826200067f565b620006ca86836200067f565b95508019841693508086168417925050509392505050565b6000819050919050565b60006200070d620007076200070184620004cb565b620006e2565b620004cb565b9050919050565b6000819050919050565b6200072983620006ec565b62000741620007388262000714565b8484546200068c565b825550505050565b600090565b6200075862000749565b620007658184846200071e565b505050565b5b818110156200078d57620007816000826200074e565b6001810190506200076b565b5050565b601f821115620007dc57620007a6816200065a565b620007b1846200066f565b81016020851015620007c1578190505b620007d9620007d0856200066f565b8301826200076a565b50505b505050565b600082821c905092915050565b60006200080160001984600802620007e1565b1980831691505092915050565b60006200081c8383620007ee565b9150826002028217905092915050565b6200083782620005eb565b67ffffffffffffffff81111562000853576200085262000367565b5b6200085f825462000625565b6200086c82828562000791565b600060209050601f831160018114620008a457600084156200088f578287015190505b6200089b85826200080e565b8655506200090b565b601f198416620008b4866200065a565b60005b82811015620008de57848901518255600182019150602085019450602081019050620008b7565b86831015620008fe5784890151620008fa601f891682620007ee565b8355505b6001600288020188555050505b505050505050565b600082825260208201905092915050565b7f4f776e61626c653a206e6577206f776e657220697320746865207a65726f206160008201527f6464726573730000000000000000000000000000000000000000000000000000602082015250565b60006200098260268362000913565b91506200098f8262000924565b604082019050919050565b60006020820190508181036000830152620009b58162000973565b9050919050565b7f4f776e61626c653a2063616c6c6572206973206e6f7420746865206f776e6572600082015250565b6000620009f460208362000913565b915062000a0182620009bc565b602082019050919050565b6000602082019050818103600083015262000a2781620009e5565b9050919050565b6137aa8062000a3e6000396000f3fe60806040526004361061012a5760003560e01c8063715018a6116100ab578063b88d4fde1161006f578063b88d4fde146103f2578063c87b56dd1461041b578063e0391b0914610458578063e985e9c514610483578063f2fde38b146104c0578063fb37e883146104e95761012a565b8063715018a6146103315780638da5cb5b1461034857806395d89b4114610373578063a22cb4651461039e578063a76b4d56146103c75761012a565b806323b872dd116100f257806323b872dd1461022857806342842e0e1461025157806352de4ee51461027a5780636352211e146102b757806370a08231146102f45761012a565b806301ffc9a71461012f57806306fdde031461016c578063081812fc14610197578063095ea7b3146101d457806313966db5146101fd575b600080fd5b34801561013b57600080fd5b506101566004803603810190610151919061228a565b610519565b60405161016391906122d2565b60405180910390f35b34801561017857600080fd5b5061018161052b565b60405161018e919061237d565b60405180910390f35b3480156101a357600080fd5b506101be60048036038101906101b991906123d5565b6105bd565b6040516101cb9190612443565b60405180910390f35b3480156101e057600080fd5b506101fb60048036038101906101f6919061248a565b610603565b005b34801561020957600080fd5b5061021261071a565b60405161021f91906124d9565b60405180910390f35b34801561023457600080fd5b5061024f600480360381019061024a91906124f4565b610720565b005b34801561025d57600080fd5b50610278600480360381019061027391906124f4565b610780565b005b34801561028657600080fd5b506102a1600480360381019061029c9190612547565b6107a0565b6040516102ae91906126cc565b60405180910390f35b3480156102c357600080fd5b506102de60048036038101906102d991906123d5565b61091b565b6040516102eb9190612443565b60405180910390f35b34801561030057600080fd5b5061031b60048036038101906103169190612547565b6109a1565b60405161032891906124d9565b60405180910390f35b34801561033d57600080fd5b50610346610a58565b005b34801561035457600080fd5b5061035d610a6c565b60405161036a9190612443565b60405180910390f35b34801561037f57600080fd5b50610388610a96565b604051610395919061237d565b60405180910390f35b3480156103aa57600080fd5b506103c560048036038101906103c0919061271a565b610b28565b005b3480156103d357600080fd5b506103dc610b3e565b6040516103e9919061237d565b60405180910390f35b3480156103fe57600080fd5b506104196004803603810190610414919061288f565b610bcc565b005b34801561042757600080fd5b50610442600480360381019061043d91906123d5565b610c2e565b60405161044f919061237d565b60405180910390f35b34801561046457600080fd5b5061046d610c40565b60405161047a91906126cc565b60405180910390f35b34801561048f57600080fd5b506104aa60048036038101906104a59190612912565b610d02565b6040516104b791906122d2565b60405180910390f35b3480156104cc57600080fd5b506104e760048036038101906104e29190612547565b610d96565b005b61050360048036038101906104fe91906129f3565b610e19565b60405161051091906124d9565b60405180910390f35b600061052482610ee5565b9050919050565b60606000805461053a90612a6b565b80601f016020809104026020016040519081016040528092919081815260200182805461056690612a6b565b80156105b35780601f10610588576101008083540402835291602001916105b3565b820191906000526020600020905b81548152906001019060200180831161059657829003601f168201915b5050505050905090565b60006105c882610fc7565b6004600083815260200190815260200160002060009054906101000a900473ffffffffffffffffffffffffffffffffffffffff169050919050565b600061060e8261091b565b90508073ffffffffffffffffffffffffffffffffffffffff168373ffffffffffffffffffffffffffffffffffffffff160361067e576040517f08c379a000000000000000000000000000000000000000000000000000000000815260040161067590612b0e565b60405180910390fd5b8073ffffffffffffffffffffffffffffffffffffffff1661069d611012565b73ffffffffffffffffffffffffffffffffffffffff1614806106cc57506106cb816106c6611012565b610d02565b5b61070b576040517f08c379a000000000000000000000000000000000000000000000000000000000815260040161070290612ba0565b60405180910390fd5b610715838361101a565b505050565b600a5481565b61073161072b611012565b826110d3565b610770576040517f08c379a000000000000000000000000000000000000000000000000000000000815260040161076790612c32565b60405180910390fd5b61077b838383611168565b505050565b61079b83838360405180602001604052806000815250610bcc565b505050565b606060006107ae6008611461565b9050600080600090505b82811015610815578473ffffffffffffffffffffffffffffffffffffffff166107e08261091b565b73ffffffffffffffffffffffffffffffffffffffff160361080a57818061080690612c81565b9250505b8060010190506107b8565b5060008167ffffffffffffffff81111561083257610831612764565b5b60405190808252806020026020018201604052801561086b57816020015b610858612204565b8152602001906001900390816108505790505b509050600080600090505b8481101561090e578673ffffffffffffffffffffffffffffffffffffffff1661089e8261091b565b73ffffffffffffffffffffffffffffffffffffffff16036109035760405180604001604052808281526020016108d383610c2e565b8152508383815181106108e9576108e8612cc9565b5b602002602001018190525081806108ff90612c81565b9250505b806001019050610876565b5081945050505050919050565b6000806109278361146f565b9050600073ffffffffffffffffffffffffffffffffffffffff168173ffffffffffffffffffffffffffffffffffffffff1603610998576040517f08c379a000000000000000000000000000000000000000000000000000000000815260040161098f90612d44565b60405180910390fd5b80915050919050565b60008073ffffffffffffffffffffffffffffffffffffffff168273ffffffffffffffffffffffffffffffffffffffff1603610a11576040517f08c379a0000000000000000000000000000000000000000000000000000000008152600401610a0890612dd6565b60405180910390fd5b600360008373ffffffffffffffffffffffffffffffffffffffff1673ffffffffffffffffffffffffffffffffffffffff168152602001908152602001600020549050919050565b610a606114ac565b610a6a600061152a565b565b6000600760009054906101000a900473ffffffffffffffffffffffffffffffffffffffff16905090565b606060018054610aa590612a6b565b80601f0160208091040260200160405190810160405280929190818152602001828054610ad190612a6b565b8015610b1e5780601f10610af357610100808354040283529160200191610b1e565b820191906000526020600020905b815481529060010190602001808311610b0157829003601f168201915b5050505050905090565b610b3a610b33611012565b83836115f0565b5050565b60098054610b4b90612a6b565b80601f0160208091040260200160405190810160405280929190818152602001828054610b7790612a6b565b8015610bc45780601f10610b9957610100808354040283529160200191610bc4565b820191906000526020600020905b815481529060010190602001808311610ba757829003601f168201915b505050505081565b610bdd610bd7611012565b836110d3565b610c1c576040517f08c379a0000000000000000000000000000000000000000000000000000000008152600401610c1390612c32565b60405180910390fd5b610c288484848461175c565b50505050565b6060610c39826117b8565b9050919050565b60606000610c4e6008611461565b905060008167ffffffffffffffff811115610c6c57610c6b612764565b5b604051908082528060200260200182016040528015610ca557816020015b610c92612204565b815260200190600190039081610c8a5790505b50905060005b82811015610cf9576040518060400160405280828152602001610ccd83610c2e565b815250828281518110610ce357610ce2612cc9565b5b6020026020010181905250806001019050610cab565b50809250505090565b6000600560008473ffffffffffffffffffffffffffffffffffffffff1673ffffffffffffffffffffffffffffffffffffffff16815260200190815260200160002060008373ffffffffffffffffffffffffffffffffffffffff1673ffffffffffffffffffffffffffffffffffffffff16815260200190815260200160002060009054906101000a900460ff16905092915050565b610d9e6114ac565b600073ffffffffffffffffffffffffffffffffffffffff168173ffffffffffffffffffffffffffffffffffffffff1603610e0d576040517f08c379a0000000000000000000000000000000000000000000000000000000008152600401610e0490612e68565b60405180910390fd5b610e168161152a565b50565b6000600a54341015610e60576040517f08c379a0000000000000000000000000000000000000000000000000000000008152600401610e5790612ed4565b60405180910390fd5b6000610e6c6008611461565b9050610e7860086118ca565b610e8233826118e0565b610e8c81846118fe565b3373ffffffffffffffffffffffffffffffffffffffff167fd35bb95e09c04b219e35047ce7b7b300e3384264ef84a40456943dbc0fc17c148285604051610ed4929190612ef4565b60405180910390a280915050919050565b60007f80ac58cd000000000000000000000000000000000000000000000000000000007bffffffffffffffffffffffffffffffffffffffffffffffffffffffff1916827bffffffffffffffffffffffffffffffffffffffffffffffffffffffff19161480610fb057507f5b5e139f000000000000000000000000000000000000000000000000000000007bffffffffffffffffffffffffffffffffffffffffffffffffffffffff1916827bffffffffffffffffffffffffffffffffffffffffffffffffffffffff1916145b80610fc05750610fbf8261196b565b5b9050919050565b610fd0816119d5565b61100f576040517f08c379a000000000000000000000000000000000000000000000000000000000815260040161100690612d44565b60405180910390fd5b50565b600033905090565b816004600083815260200190815260200160002060006101000a81548173ffffffffffffffffffffffffffffffffffffffff021916908373ffffffffffffffffffffffffffffffffffffffff160217905550808273ffffffffffffffffffffffffffffffffffffffff1661108d8361091b565b73ffffffffffffffffffffffffffffffffffffffff167f8c5be1e5ebec7d5bd14f71427d1e84f3dd0314c0f7b2291e5b200ac8c7c3b92560405160405180910390a45050565b6000806110df8361091b565b90508073ffffffffffffffffffffffffffffffffffffffff168473ffffffffffffffffffffffffffffffffffffffff16148061112157506111208185610d02565b5b8061115f57508373ffffffffffffffffffffffffffffffffffffffff16611147846105bd565b73ffffffffffffffffffffffffffffffffffffffff16145b91505092915050565b8273ffffffffffffffffffffffffffffffffffffffff166111888261091b565b73ffffffffffffffffffffffffffffffffffffffff16146111de576040517f08c379a00000000000000000000000000000000000000000000000000000000081526004016111d590612f96565b60405180910390fd5b600073ffffffffffffffffffffffffffffffffffffffff168273ffffffffffffffffffffffffffffffffffffffff160361124d576040517f08c379a000000000000000000000000000000000000000000000000000000000815260040161124490613028565b60405180910390fd5b61125a8383836001611a16565b8273ffffffffffffffffffffffffffffffffffffffff1661127a8261091b565b73ffffffffffffffffffffffffffffffffffffffff16146112d0576040517f08c379a00000000000000000000000000000000000000000000000000000000081526004016112c790612f96565b60405180910390fd5b6004600082815260200190815260200160002060006101000a81549073ffffffffffffffffffffffffffffffffffffffff02191690556001600360008573ffffffffffffffffffffffffffffffffffffffff1673ffffffffffffffffffffffffffffffffffffffff168152602001908152602001600020600082825403925050819055506001600360008473ffffffffffffffffffffffffffffffffffffffff1673ffffffffffffffffffffffffffffffffffffffff16815260200190815260200160002060008282540192505081905550816002600083815260200190815260200160002060006101000a81548173ffffffffffffffffffffffffffffffffffffffff021916908373ffffffffffffffffffffffffffffffffffffffff160217905550808273ffffffffffffffffffffffffffffffffffffffff168473ffffffffffffffffffffffffffffffffffffffff167fddf252ad1be2c89b69c2b068fc378daa952ba7f163c4a11628f55a4df523b3ef60405160405180910390a461145c8383836001611b3c565b505050565b600081600001549050919050565b60006002600083815260200190815260200160002060009054906101000a900473ffffffffffffffffffffffffffffffffffffffff169050919050565b6114b4611012565b73ffffffffffffffffffffffffffffffffffffffff166114d2610a6c565b73ffffffffffffffffffffffffffffffffffffffff1614611528576040517f08c379a000000000000000000000000000000000000000000000000000000000815260040161151f90613094565b60405180910390fd5b565b6000600760009054906101000a900473ffffffffffffffffffffffffffffffffffffffff16905081600760006101000a81548173ffffffffffffffffffffffffffffffffffffffff021916908373ffffffffffffffffffffffffffffffffffffffff1602179055508173ffffffffffffffffffffffffffffffffffffffff168173ffffffffffffffffffffffffffffffffffffffff167f8be0079c531659141344cd1fd0a4f28419497f9722a3daafe3b4186f6b6457e060405160405180910390a35050565b8173ffffffffffffffffffffffffffffffffffffffff168373ffffffffffffffffffffffffffffffffffffffff160361165e576040517f08c379a000000000000000000000000000000000000000000000000000000000815260040161165590613100565b60405180910390fd5b80600560008573ffffffffffffffffffffffffffffffffffffffff1673ffffffffffffffffffffffffffffffffffffffff16815260200190815260200160002060008473ffffffffffffffffffffffffffffffffffffffff1673ffffffffffffffffffffffffffffffffffffffff16815260200190815260200160002060006101000a81548160ff0219169083151502179055508173ffffffffffffffffffffffffffffffffffffffff168373ffffffffffffffffffffffffffffffffffffffff167f17307eab39ab6107e8899845ad3d59bd9653f200f220920489ca2b5937696c318360405161174f91906122d2565b60405180910390a3505050565b611767848484611168565b61177384848484611b42565b6117b2576040517f08c379a00000000000000000000000000000000000000000000000000000000081526004016117a990613192565b60405180910390fd5b50505050565b60606117c382610fc7565b60006006600084815260200190815260200160002080546117e390612a6b565b80601f016020809104026020016040519081016040528092919081815260200182805461180f90612a6b565b801561185c5780601f106118315761010080835404028352916020019161185c565b820191906000526020600020905b81548152906001019060200180831161183f57829003601f168201915b50505050509050600061186d611cc9565b905060008151036118825781925050506118c5565b6000825111156118b757808260405160200161189f9291906131ee565b604051602081830303815290604052925050506118c5565b6118c084611ce0565b925050505b919050565b6001816000016000828254019250508190555050565b6118fa828260405180602001604052806000815250611d48565b5050565b611907826119d5565b611946576040517f08c379a000000000000000000000000000000000000000000000000000000000815260040161193d90613284565b60405180910390fd5b806006600084815260200190815260200160002090816119669190613450565b505050565b60007f01ffc9a7000000000000000000000000000000000000000000000000000000007bffffffffffffffffffffffffffffffffffffffffffffffffffffffff1916827bffffffffffffffffffffffffffffffffffffffffffffffffffffffff1916149050919050565b60008073ffffffffffffffffffffffffffffffffffffffff166119f78361146f565b73ffffffffffffffffffffffffffffffffffffffff1614159050919050565b6001811115611b3657600073ffffffffffffffffffffffffffffffffffffffff168473ffffffffffffffffffffffffffffffffffffffff1614611aaa5780600360008673ffffffffffffffffffffffffffffffffffffffff1673ffffffffffffffffffffffffffffffffffffffff1681526020019081526020016000206000828254611aa29190613522565b925050819055505b600073ffffffffffffffffffffffffffffffffffffffff168373ffffffffffffffffffffffffffffffffffffffff1614611b355780600360008573ffffffffffffffffffffffffffffffffffffffff1673ffffffffffffffffffffffffffffffffffffffff1681526020019081526020016000206000828254611b2d9190613556565b925050819055505b5b50505050565b50505050565b6000611b638473ffffffffffffffffffffffffffffffffffffffff16611da3565b15611cbc578373ffffffffffffffffffffffffffffffffffffffff1663150b7a02611b8c611012565b8786866040518563ffffffff1660e01b8152600401611bae94939291906135df565b6020604051808303816000875af1925050508015611bea57506040513d601f19601f82011682018060405250810190611be79190613640565b60015b611c6c573d8060008114611c1a576040519150601f19603f3d011682016040523d82523d6000602084013e611c1f565b606091505b506000815103611c64576040517f08c379a0000000000000000000000000000000000000000000000000000000008152600401611c5b90613192565b60405180910390fd5b805181602001fd5b63150b7a0260e01b7bffffffffffffffffffffffffffffffffffffffffffffffffffffffff1916817bffffffffffffffffffffffffffffffffffffffffffffffffffffffff191614915050611cc1565b600190505b949350505050565b606060405180602001604052806000815250905090565b6060611ceb82610fc7565b6000611cf5611cc9565b90506000815111611d155760405180602001604052806000815250611d40565b80611d1f84611dc6565b604051602001611d309291906131ee565b6040516020818303038152906040525b915050919050565b611d528383611e94565b611d5f6000848484611b42565b611d9e576040517f08c379a0000000000000000000000000000000000000000000000000000000008152600401611d9590613192565b60405180910390fd5b505050565b6000808273ffffffffffffffffffffffffffffffffffffffff163b119050919050565b606060006001611dd5846120b1565b01905060008167ffffffffffffffff811115611df457611df3612764565b5b6040519080825280601f01601f191660200182016040528015611e265781602001600182028036833780820191505090505b509050600082602001820190505b600115611e89578080600190039150507f3031323334353637383961626364656600000000000000000000000000000000600a86061a8153600a8581611e7d57611e7c61366d565b5b04945060008503611e34575b819350505050919050565b600073ffffffffffffffffffffffffffffffffffffffff168273ffffffffffffffffffffffffffffffffffffffff1603611f03576040517f08c379a0000000000000000000000000000000000000000000000000000000008152600401611efa906136e8565b60405180910390fd5b611f0c816119d5565b15611f4c576040517f08c379a0000000000000000000000000000000000000000000000000000000008152600401611f4390613754565b60405180910390fd5b611f5a600083836001611a16565b611f63816119d5565b15611fa3576040517f08c379a0000000000000000000000000000000000000000000000000000000008152600401611f9a90613754565b60405180910390fd5b6001600360008473ffffffffffffffffffffffffffffffffffffffff1673ffffffffffffffffffffffffffffffffffffffff16815260200190815260200160002060008282540192505081905550816002600083815260200190815260200160002060006101000a81548173ffffffffffffffffffffffffffffffffffffffff021916908373ffffffffffffffffffffffffffffffffffffffff160217905550808273ffffffffffffffffffffffffffffffffffffffff16600073ffffffffffffffffffffffffffffffffffffffff167fddf252ad1be2c89b69c2b068fc378daa952ba7f163c4a11628f55a4df523b3ef60405160405180910390a46120ad600083836001611b3c565b5050565b600080600090507a184f03e93ff9f4daa797ed6e38ed64bf6a1f010000000000000000831061210f577a184f03e93ff9f4daa797ed6e38ed64bf6a1f01000000000000000083816121055761210461366d565b5b0492506040810190505b6d04ee2d6d415b85acef8100000000831061214c576d04ee2d6d415b85acef810000000083816121425761214161366d565b5b0492506020810190505b662386f26fc10000831061217b57662386f26fc1000083816121715761217061366d565b5b0492506010810190505b6305f5e10083106121a4576305f5e100838161219a5761219961366d565b5b0492506008810190505b61271083106121c95761271083816121bf576121be61366d565b5b0492506004810190505b606483106121ec57606483816121e2576121e161366d565b5b0492506002810190505b600a83106121fb576001810190505b80915050919050565b604051806040016040528060008152602001606081525090565b6000604051905090565b600080fd5b600080fd5b60007fffffffff0000000000000000000000000000000000000000000000000000000082169050919050565b61226781612232565b811461227257600080fd5b50565b6000813590506122848161225e565b92915050565b6000602082840312156122a05761229f612228565b5b60006122ae84828501612275565b91505092915050565b60008115159050919050565b6122cc816122b7565b82525050565b60006020820190506122e760008301846122c3565b92915050565b600081519050919050565b600082825260208201905092915050565b60005b8381101561232757808201518184015260208101905061230c565b60008484015250505050565b6000601f19601f8301169050919050565b600061234f826122ed565b61235981856122f8565b9350612369818560208601612309565b61237281612333565b840191505092915050565b600060208201905081810360008301526123978184612344565b905092915050565b6000819050919050565b6123b28161239f565b81146123bd57600080fd5b50565b6000813590506123cf816123a9565b92915050565b6000602082840312156123eb576123ea612228565b5b60006123f9848285016123c0565b91505092915050565b600073ffffffffffffffffffffffffffffffffffffffff82169050919050565b600061242d82612402565b9050919050565b61243d81612422565b82525050565b60006020820190506124586000830184612434565b92915050565b61246781612422565b811461247257600080fd5b50565b6000813590506124848161245e565b92915050565b600080604083850312156124a1576124a0612228565b5b60006124af85828601612475565b92505060206124c0858286016123c0565b9150509250929050565b6124d38161239f565b82525050565b60006020820190506124ee60008301846124ca565b92915050565b60008060006060848603121561250d5761250c612228565b5b600061251b86828701612475565b935050602061252c86828701612475565b925050604061253d868287016123c0565b9150509250925092565b60006020828403121561255d5761255c612228565b5b600061256b84828501612475565b91505092915050565b600081519050919050565b600082825260208201905092915050565b6000819050602082019050919050565b6125a98161239f565b82525050565b600082825260208201905092915050565b60006125cb826122ed565b6125d581856125af565b93506125e5818560208601612309565b6125ee81612333565b840191505092915050565b600060408301600083015161261160008601826125a0565b506020830151848203602086015261262982826125c0565b9150508091505092915050565b600061264283836125f9565b905092915050565b6000602082019050919050565b600061266282612574565b61266c818561257f565b93508360208202850161267e85612590565b8060005b858110156126ba578484038952815161269b8582612636565b94506126a68361264a565b925060208a01995050600181019050612682565b50829750879550505050505092915050565b600060208201905081810360008301526126e68184612657565b905092915050565b6126f7816122b7565b811461270257600080fd5b50565b600081359050612714816126ee565b92915050565b6000806040838503121561273157612730612228565b5b600061273f85828601612475565b925050602061275085828601612705565b9150509250929050565b600080fd5b600080fd5b7f4e487b7100000000000000000000000000000000000000000000000000000000600052604160045260246000fd5b61279c82612333565b810181811067ffffffffffffffff821117156127bb576127ba612764565b5b80604052505050565b60006127ce61221e565b90506127da8282612793565b919050565b600067ffffffffffffffff8211156127fa576127f9612764565b5b61280382612333565b9050602081019050919050565b82818337600083830152505050565b600061283261282d846127df565b6127c4565b90508281526020810184848401111561284e5761284d61275f565b5b612859848285612810565b509392505050565b600082601f8301126128765761287561275a565b5b813561288684826020860161281f565b91505092915050565b600080600080608085870312156128a9576128a8612228565b5b60006128b787828801612475565b94505060206128c887828801612475565b93505060406128d9878288016123c0565b925050606085013567ffffffffffffffff8111156128fa576128f961222d565b5b61290687828801612861565b91505092959194509250565b6000806040838503121561292957612928612228565b5b600061293785828601612475565b925050602061294885828601612475565b9150509250929050565b600067ffffffffffffffff82111561296d5761296c612764565b5b61297682612333565b9050602081019050919050565b600061299661299184612952565b6127c4565b9050828152602081018484840111156129b2576129b161275f565b5b6129bd848285612810565b509392505050565b600082601f8301126129da576129d961275a565b5b81356129ea848260208601612983565b91505092915050565b600060208284031215612a0957612a08612228565b5b600082013567ffffffffffffffff811115612a2757612a2661222d565b5b612a33848285016129c5565b91505092915050565b7f4e487b7100000000000000000000000000000000000000000000000000000000600052602260045260246000fd5b60006002820490506001821680612a8357607f821691505b602082108103612a9657612a95612a3c565b5b50919050565b7f4552433732313a20617070726f76616c20746f2063757272656e74206f776e6560008201527f7200000000000000000000000000000000000000000000000000000000000000602082015250565b6000612af86021836122f8565b9150612b0382612a9c565b604082019050919050565b60006020820190508181036000830152612b2781612aeb565b9050919050565b7f4552433732313a20617070726f76652063616c6c6572206973206e6f7420746f60008201527f6b656e206f776e6572206f7220617070726f76656420666f7220616c6c000000602082015250565b6000612b8a603d836122f8565b9150612b9582612b2e565b604082019050919050565b60006020820190508181036000830152612bb981612b7d565b9050919050565b7f4552433732313a2063616c6c6572206973206e6f7420746f6b656e206f776e6560008201527f72206f7220617070726f76656400000000000000000000000000000000000000602082015250565b6000612c1c602d836122f8565b9150612c2782612bc0565b604082019050919050565b60006020820190508181036000830152612c4b81612c0f565b9050919050565b7f4e487b7100000000000000000000000000000000000000000000000000000000600052601160045260246000fd5b6000612c8c8261239f565b91507fffffffffffffffffffffffffffffffffffffffffffffffffffffffffffffffff8203612cbe57612cbd612c52565b5b600182019050919050565b7f4e487b7100000000000000000000000000000000000000000000000000000000600052603260045260246000fd5b7f4552433732313a20696e76616c696420746f6b656e2049440000000000000000600082015250565b6000612d2e6018836122f8565b9150612d3982612cf8565b602082019050919050565b60006020820190508181036000830152612d5d81612d21565b9050919050565b7f4552433732313a2061646472657373207a65726f206973206e6f74206120766160008201527f6c6964206f776e65720000000000000000000000000000000000000000000000602082015250565b6000612dc06029836122f8565b9150612dcb82612d64565b604082019050919050565b60006020820190508181036000830152612def81612db3565b9050919050565b7f4f776e61626c653a206e6577206f776e657220697320746865207a65726f206160008201527f6464726573730000000000000000000000000000000000000000000000000000602082015250565b6000612e526026836122f8565b9150612e5d82612df6565b604082019050919050565b60006020820190508181036000830152612e8181612e45565b9050919050565b7f496e73756666696369656e74206d696e74206665650000000000000000000000600082015250565b6000612ebe6015836122f8565b9150612ec982612e88565b602082019050919050565b60006020820190508181036000830152612eed81612eb1565b9050919050565b6000604082019050612f0960008301856124ca565b8181036020830152612f1b8184612344565b90509392505050565b7f4552433732313a207472616e736665722066726f6d20696e636f72726563742060008201527f6f776e6572000000000000000000000000000000000000000000000000000000602082015250565b6000612f806025836122f8565b9150612f8b82612f24565b604082019050919050565b60006020820190508181036000830152612faf81612f73565b9050919050565b7f4552433732313a207472616e7366657220746f20746865207a65726f2061646460008201527f7265737300000000000000000000000000000000000000000000000000000000602082015250565b60006130126024836122f8565b915061301d82612fb6565b604082019050919050565b6000602082019050818103600083015261304181613005565b9050919050565b7f4f776e61626c653a2063616c6c6572206973206e6f7420746865206f776e6572600082015250565b600061307e6020836122f8565b915061308982613048565b602082019050919050565b600060208201905081810360008301526130ad81613071565b9050919050565b7f4552433732313a20617070726f766520746f2063616c6c657200000000000000600082015250565b60006130ea6019836122f8565b91506130f5826130b4565b602082019050919050565b60006020820190508181036000830152613119816130dd565b9050919050565b7f4552433732313a207472616e7366657220746f206e6f6e20455243373231526560008201527f63656976657220696d706c656d656e7465720000000000000000000000000000602082015250565b600061317c6032836122f8565b915061318782613120565b604082019050919050565b600060208201905081810360008301526131ab8161316f565b9050919050565b600081905092915050565b60006131c8826122ed565b6131d281856131b2565b93506131e2818560208601612309565b80840191505092915050565b60006131fa82856131bd565b915061320682846131bd565b91508190509392505050565b7f45524337323155524953746f726167653a2055524920736574206f66206e6f6e60008201527f6578697374656e7420746f6b656e000000000000000000000000000000000000602082015250565b600061326e602e836122f8565b915061327982613212565b604082019050919050565b6000602082019050818103600083015261329d81613261565b9050919050565b60008190508160005260206000209050919050565b60006020601f8301049050919050565b600082821b905092915050565b6000600883026133067fffffffffffffffffffffffffffffffffffffffffffffffffffffffffffffffff826132c9565b61331086836132c9565b95508019841693508086168417925050509392505050565b6000819050919050565b600061334d6133486133438461239f565b613328565b61239f565b9050919050565b6000819050919050565b61336783613332565b61337b61337382613354565b8484546132d6565b825550505050565b600090565b613390613383565b61339b81848461335e565b505050565b5b818110156133bf576133b4600082613388565b6001810190506133a1565b5050565b601f821115613404576133d5816132a4565b6133de846132b9565b810160208510156133ed578190505b6134016133f9856132b9565b8301826133a0565b50505b505050565b600082821c905092915050565b600061342760001984600802613409565b1980831691505092915050565b60006134408383613416565b9150826002028217905092915050565b613459826122ed565b67ffffffffffffffff81111561347257613471612764565b5b61347c8254612a6b565b6134878282856133c3565b600060209050601f8311600181146134ba57600084156134a8578287015190505b6134b28582613434565b86555061351a565b601f1984166134c8866132a4565b60005b828110156134f0578489015182556001820191506020850194506020810190506134cb565b8683101561350d5784890151613509601f891682613416565b8355505b6001600288020188555050505b505050505050565b600061352d8261239f565b91506135388361239f565b92508282039050818111156135505761354f612c52565b5b92915050565b60006135618261239f565b915061356c8361239f565b925082820190508082111561358457613583612c52565b5b92915050565b600081519050919050565b600082825260208201905092915050565b60006135b18261358a565b6135bb8185613595565b93506135cb818560208601612309565b6135d481612333565b840191505092915050565b60006080820190506135f46000830187612434565b6136016020830186612434565b61360e60408301856124ca565b818103606083015261362081846135a6565b905095945050505050565b60008151905061363a8161225e565b92915050565b60006020828403121561365657613655612228565b5b60006136648482850161362b565b91505092915050565b7f4e487b7100000000000000000000000000000000000000000000000000000000600052601260045260246000fd5b7f4552433732313a206d696e7420746f20746865207a65726f2061646472657373600082015250565b60006136d26020836122f8565b91506136dd8261369c565b602082019050919050565b60006020820190508181036000830152613701816136c5565b9050919050565b7f4552433732313a20746f6b656e20616c7265616479206d696e74656400000000600082015250565b600061373e601c836122f8565b915061374982613708565b602082019050919050565b6000602082019050818103600083015261376d81613731565b905091905056fea2646970667358221220c4cfcdb64f90a565b247c3f1daf3b59016b2b56aecfe4ae5101027c29cefcb3664736f6c63430008120033",
  "immutableReferences": {},
  "source": "// SPDX-License-Identifier: MIT\r\npragma solidity ^0.8.18;\r\n\r\nimport \"@openzeppelin/contracts/token/ERC721/extensions/ERC721URIStorage.sol\";\r\nimport \"@openzeppelin/contracts/access/Ownable.sol\";\r\nimport \"@openzeppelin/contracts/utils/Counters.sol\";\r\n\r\ncontract NFTCollection is ERC721URIStorage, Ownable {\r\n    using Counters for Counters.Counter;\r\n    Counters.Counter private _tokenIds;\r\n\r\n    // Contract metadata : URL dcrivant la collection (ex. via un gateway IPFS)\r\n    string public contractMetadata;\r\n\r\n    // Frais de mint en wei (par exemple, en MATIC ou ETH selon le rseau)\r\n    uint256 public mintFee;\r\n\r\n    struct ArtRender {\r\n        uint256 id;\r\n        string uri;\r\n    }\r\n\r\n    event NFTMinted(address indexed recipient, uint256 tokenId, string tokenURI);\r\n\r\n    constructor(\r\n        address initialOwner,\r\n        string memory _contractMetadata_,\r\n        string memory name_,\r\n        string memory symbol_,\r\n        uint256 _mintFee\r\n    )\r\n        ERC721(name_, symbol_)\r\n    {\r\n        contractMetadata = _contractMetadata_;\r\n        mintFee = _mintFee;\r\n        // Transfrer la proprit  l'initialOwner\r\n        transferOwnership(initialOwner);\r\n    }\r\n\r\n    /// @notice Permet  un utilisateur de mint un NFT en payant le mintFee.\r\n    function mintNFT(string memory uri) external payable returns (uint256) {\r\n        require(msg.value >= mintFee, \"Insufficient mint fee\");\r\n        uint256 tokenId = _tokenIds.current();\r\n        _tokenIds.increment();\r\n        _safeMint(msg.sender, tokenId);\r\n        _setTokenURI(tokenId, uri);\r\n        emit NFTMinted(msg.sender, tokenId, uri);\r\n        return tokenId;\r\n    }\r\n\r\n    /// @notice Renvoie tous les NFT crs sous forme dun tableau de {id, uri}.\r\n    function getAllNFTs() external view returns (ArtRender[] memory) {\r\n        uint256 total = _tokenIds.current();\r\n        ArtRender[] memory items = new ArtRender[](total);\r\n        for (uint256 i = 0; i < total; ) {\r\n            items[i] = ArtRender(i, tokenURI(i));\r\n            unchecked { ++i; }\r\n        }\r\n        return items;\r\n    }\r\n\r\n    /// @notice Renvoie les NFT possds par une adresse donne.\r\n    function getUserNFTs(address account) external view returns (ArtRender[] memory) {\r\n        uint256 total = _tokenIds.current();\r\n        uint256 count;\r\n        for (uint256 i = 0; i < total; ) {\r\n            if (ownerOf(i) == account) {\r\n                count++;\r\n            }\r\n            unchecked { ++i; }\r\n        }\r\n        ArtRender[] memory items = new ArtRender[](count);\r\n        uint256 index;\r\n        for (uint256 i = 0; i < total; ) {\r\n            if (ownerOf(i) == account) {\r\n                items[index] = ArtRender(i, tokenURI(i));\r\n                index++;\r\n            }\r\n            unchecked { ++i; }\r\n        }\r\n        return items;\r\n    }\r\n\r\n    // --- OVERRIDES obligatoires ---\r\n\r\n    function _burn(uint256 tokenId) internal override {\r\n        super._burn(tokenId);\r\n    }\r\n\r\n    function tokenURI(uint256 tokenId)\r\n        public\r\n        view\r\n        override\r\n        returns (string memory)\r\n    {\r\n        return super.tokenURI(tokenId);\r\n    }\r\n\r\n    function supportsInterface(bytes4 interfaceId)\r\n        public\r\n        view\r\n        override\r\n        returns (bool)\r\n    {\r\n        return super.supportsInterface(interfaceId);\r\n    }\r\n}\r\n",
  "sourcePath": "C:\\Users\\Steeve\\Documents\\nft-marketplace\\contracts\\NFTCollection.sol",
  "compiler": {
    "name": "solc",
    "version": "0.8.18+commit.87f61d96.Emscripten.clang"
  },
  "schemaVersion": "3.4.16",
  "updatedAt": "2025-03-08T15:26:47.368Z",
  "networkType": "ethereum",
  "devdoc": {
    "events": {
      "Approval(address,address,uint256)": {
        "details": "Emitted when `owner` enables `approved` to manage the `tokenId` token."
      },
      "ApprovalForAll(address,address,bool)": {
        "details": "Emitted when `owner` enables or disables (`approved`) `operator` to manage all of its assets."
      },
      "Transfer(address,address,uint256)": {
        "details": "Emitted when `tokenId` token is transferred from `from` to `to`."
      }
    },
    "kind": "dev",
    "methods": {
      "approve(address,uint256)": {
        "details": "See {IERC721-approve}."
      },
      "balanceOf(address)": {
        "details": "See {IERC721-balanceOf}."
      },
      "getApproved(uint256)": {
        "details": "See {IERC721-getApproved}."
      },
      "isApprovedForAll(address,address)": {
        "details": "See {IERC721-isApprovedForAll}."
      },
      "name()": {
        "details": "See {IERC721Metadata-name}."
      },
      "owner()": {
        "details": "Returns the address of the current owner."
      },
      "ownerOf(uint256)": {
        "details": "See {IERC721-ownerOf}."
      },
      "renounceOwnership()": {
        "details": "Leaves the contract without owner. It will not be possible to call `onlyOwner` functions anymore. Can only be called by the current owner. NOTE: Renouncing ownership will leave the contract without an owner, thereby removing any functionality that is only available to the owner."
      },
      "safeTransferFrom(address,address,uint256)": {
        "details": "See {IERC721-safeTransferFrom}."
      },
      "safeTransferFrom(address,address,uint256,bytes)": {
        "details": "See {IERC721-safeTransferFrom}."
      },
      "setApprovalForAll(address,bool)": {
        "details": "See {IERC721-setApprovalForAll}."
      },
      "supportsInterface(bytes4)": {
        "details": "See {IERC165-supportsInterface}."
      },
      "symbol()": {
        "details": "See {IERC721Metadata-symbol}."
      },
      "tokenURI(uint256)": {
        "details": "See {IERC721Metadata-tokenURI}."
      },
      "transferFrom(address,address,uint256)": {
        "details": "See {IERC721-transferFrom}."
      },
      "transferOwnership(address)": {
        "details": "Transfers ownership of the contract to a new account (`newOwner`). Can only be called by the current owner."
      }
    },
    "version": 1
  },
  "userdoc": {
    "kind": "user",
    "methods": {
      "getAllNFTs()": {
        "notice": "Renvoie tous les NFT crs sous forme dun tableau de {id, uri}."
      },
      "getUserNFTs(address)": {
        "notice": "Renvoie les NFT possds par une adresse donne."
      },
      "mintNFT(string)": {
        "notice": "Permet  un utilisateur de mint un NFT en payant le mintFee."
      }
    },
    "version": 1
  }
}